{
  "contractName": "frax_pool",
  "abi": [
    {
      "inputs": [
        {
          "internalType": "address",
          "name": "_oracle_address",
          "type": "address"
        }
      ],
      "stateMutability": "nonpayable",
      "type": "constructor"
    },
    {
      "inputs": [
        {
          "internalType": "uint256",
          "name": "new_ceiling",
          "type": "uint256"
        }
      ],
      "name": "setPoolCeiling",
      "outputs": [],
      "stateMutability": "nonpayable",
      "type": "function"
    },
    {
      "inputs": [
        {
          "internalType": "address",
          "name": "new_oracle",
          "type": "address"
        }
      ],
      "name": "setOracle",
      "outputs": [],
      "stateMutability": "nonpayable",
      "type": "function"
    },
    {
      "inputs": [
        {
          "internalType": "address",
          "name": "collateral_address",
          "type": "address"
        }
      ],
      "name": "setCollateralAdd",
      "outputs": [],
      "stateMutability": "nonpayable",
      "type": "function"
    },
    {
      "inputs": [
        {
          "internalType": "address",
          "name": "frax_contract_address",
          "type": "address"
        }
      ],
      "name": "setFRAXAddress",
      "outputs": [],
      "stateMutability": "nonpayable",
      "type": "function"
    },
    {
      "inputs": [
        {
          "internalType": "uint256",
          "name": "c_price",
          "type": "uint256"
        }
      ],
      "name": "setPrice",
      "outputs": [],
      "stateMutability": "nonpayable",
      "type": "function"
    },
    {
      "inputs": [
        {
          "internalType": "uint256",
          "name": "collateral_amount",
          "type": "uint256"
        },
        {
          "internalType": "uint256",
          "name": "FXS_amount",
          "type": "uint256"
        }
      ],
      "name": "mintFrax",
      "outputs": [],
      "stateMutability": "payable",
      "type": "function",
      "payable": true
    },
    {
      "inputs": [
        {
          "internalType": "uint256",
          "name": "FRAX_amount",
          "type": "uint256"
        }
      ],
      "name": "redeemFrax",
      "outputs": [],
      "stateMutability": "payable",
      "type": "function",
      "payable": true
    }
  ],
  "bytecode": "0x608060405234801561001057600080fd5b506040516117e23803806117e28339818101604052602081101561003357600080fd5b810190808051906020019092919050505080600160006101000a81548173ffffffffffffffffffffffffffffffffffffffff021916908373ffffffffffffffffffffffffffffffffffffffff1602179055505061174d806100956000396000f3fe6080604052600436106100705760003560e01c806391b7f5ed1161004e57806391b7f5ed14610168578063b2892adb146101a3578063c7edb3f0146101db578063e86bc6191461020957610070565b80634b3161c214610075578063556e9834146100c65780637adbf97314610117575b600080fd5b34801561008157600080fd5b506100c46004803603602081101561009857600080fd5b81019080803573ffffffffffffffffffffffffffffffffffffffff169060200190929190505050610244565b005b3480156100d257600080fd5b50610115600480360360208110156100e957600080fd5b81019080803573ffffffffffffffffffffffffffffffffffffffff16906020019092919050505061034b565b005b34801561012357600080fd5b506101666004803603602081101561013a57600080fd5b81019080803573ffffffffffffffffffffffffffffffffffffffff169060200190929190505050610451565b005b34801561017457600080fd5b506101a16004803603602081101561018b57600080fd5b8101908080359060200190929190505050610558565b005b6101d9600480360360408110156101b957600080fd5b810190808035906020019092919080359060200190929190505050610625565b005b610207600480360360208110156101f157600080fd5b81019080803590602001909291905050506111fa565b005b34801561021557600080fd5b506102426004803603602081101561022c57600080fd5b810190808035906020019092919050505061164a565b005b600160009054906101000a900473ffffffffffffffffffffffffffffffffffffffff1673ffffffffffffffffffffffffffffffffffffffff163373ffffffffffffffffffffffffffffffffffffffff1614610307576040517f08c379a00000000000000000000000000000000000000000000000000000000081526004018080602001828103825260188152602001807f796f75277265206e6f7420746865206f7261636c65203a70000000000000000081525060200191505060405180910390fd5b80600360006101000a81548173ffffffffffffffffffffffffffffffffffffffff021916908373ffffffffffffffffffffffffffffffffffffffff16021790555050565b600160009054906101000a900473ffffffffffffffffffffffffffffffffffffffff1673ffffffffffffffffffffffffffffffffffffffff163373ffffffffffffffffffffffffffffffffffffffff161461040e576040517f08c379a00000000000000000000000000000000000000000000000000000000081526004018080602001828103825260188152602001807f796f75277265206e6f7420746865206f7261636c65203a70000000000000000081525060200191505060405180910390fd5b806000806101000a81548173ffffffffffffffffffffffffffffffffffffffff021916908373ffffffffffffffffffffffffffffffffffffffff16021790555050565b600160009054906101000a900473ffffffffffffffffffffffffffffffffffffffff1673ffffffffffffffffffffffffffffffffffffffff163373ffffffffffffffffffffffffffffffffffffffff1614610514576040517f08c379a00000000000000000000000000000000000000000000000000000000081526004018080602001828103825260188152602001807f796f75277265206e6f7420746865206f7261636c65203a70000000000000000081525060200191505060405180910390fd5b80600160006101000a81548173ffffffffffffffffffffffffffffffffffffffff021916908373ffffffffffffffffffffffffffffffffffffffff16021790555050565b600160009054906101000a900473ffffffffffffffffffffffffffffffffffffffff1673ffffffffffffffffffffffffffffffffffffffff163373ffffffffffffffffffffffffffffffffffffffff161461061b576040517f08c379a00000000000000000000000000000000000000000000000000000000081526004018080602001828103825260188152602001807f796f75277265206e6f7420746865206f7261636c65203a70000000000000000081525060200191505060405180910390fd5b8060048190555050565b6000806000600360009054906101000a900473ffffffffffffffffffffffffffffffffffffffff1673ffffffffffffffffffffffffffffffffffffffff16632eb9771b6040518163ffffffff1660e01b815260040160206040518083038186803b15801561069257600080fd5b505afa1580156106a6573d6000803e3d6000fd5b505050506040513d60208110156106bc57600080fd5b8101908080519060200190929190505050141561094157600260009054906101000a900473ffffffffffffffffffffffffffffffffffffffff1673ffffffffffffffffffffffffffffffffffffffff166323b872dd3330866040518463ffffffff1660e01b8152600401808473ffffffffffffffffffffffffffffffffffffffff1673ffffffffffffffffffffffffffffffffffffffff1681526020018373ffffffffffffffffffffffffffffffffffffffff1673ffffffffffffffffffffffffffffffffffffffff1681526020018281526020019350505050602060405180830381600087803b1580156107b057600080fd5b505af11580156107c4573d6000803e3d6000fd5b505050506040513d60208110156107da57600080fd5b810190808051906020019092919050505050600360009054906101000a900473ffffffffffffffffffffffffffffffffffffffff1673ffffffffffffffffffffffffffffffffffffffff1663b4f56b2633856040518363ffffffff1660e01b8152600401808373ffffffffffffffffffffffffffffffffffffffff1673ffffffffffffffffffffffffffffffffffffffff16815260200182815260200192505050600060405180830381600087803b15801561089557600080fd5b505af11580156108a9573d6000803e3d6000fd5b50505050600260009054906101000a900473ffffffffffffffffffffffffffffffffffffffff1673ffffffffffffffffffffffffffffffffffffffff166342966c68846040518263ffffffff1660e01b815260040180828152602001915050600060405180830381600087803b15801561092257600080fd5b505af1158015610936573d6000803e3d6000fd5b5050505050506111f6565b6000600360009054906101000a900473ffffffffffffffffffffffffffffffffffffffff1673ffffffffffffffffffffffffffffffffffffffff1663f0b51e8b6040518163ffffffff1660e01b815260040160206040518083038186803b1580156109ab57600080fd5b505afa1580156109bf573d6000803e3d6000fd5b505050506040513d60208110156109d557600080fd5b81019080805190602001909291905050509050600060045490506000600360009054906101000a900473ffffffffffffffffffffffffffffffffffffffff1673ffffffffffffffffffffffffffffffffffffffff16632eb9771b6040518163ffffffff1660e01b815260040160206040518083038186803b158015610a5957600080fd5b505afa158015610a6d573d6000803e3d6000fd5b505050506040513d6020811015610a8357600080fd5b8101908080519060200190929190505050905060008183890281610aa357fe5b049050600082620f42400385890281610ab857fe5b04905080821015610e5d576000809054906101000a900473ffffffffffffffffffffffffffffffffffffffff1673ffffffffffffffffffffffffffffffffffffffff166323b872dd33308c6040518463ffffffff1660e01b8152600401808473ffffffffffffffffffffffffffffffffffffffff1673ffffffffffffffffffffffffffffffffffffffff1681526020018373ffffffffffffffffffffffffffffffffffffffff1673ffffffffffffffffffffffffffffffffffffffff1681526020018281526020019350505050602060405180830381600087803b158015610b9f57600080fd5b505af1158015610bb3573d6000803e3d6000fd5b505050506040513d6020811015610bc957600080fd5b810190808051906020019092919050505050620f424083620f424003830281610bee57fe5b049650600260009054906101000a900473ffffffffffffffffffffffffffffffffffffffff1673ffffffffffffffffffffffffffffffffffffffff166323b872dd33308a6040518463ffffffff1660e01b8152600401808473ffffffffffffffffffffffffffffffffffffffff1673ffffffffffffffffffffffffffffffffffffffff1681526020018373ffffffffffffffffffffffffffffffffffffffff1673ffffffffffffffffffffffffffffffffffffffff1681526020018281526020019350505050602060405180830381600087803b158015610cce57600080fd5b505af1158015610ce2573d6000803e3d6000fd5b505050506040513d6020811015610cf857600080fd5b810190808051906020019092919050505050600360009054906101000a900473ffffffffffffffffffffffffffffffffffffffff1673ffffffffffffffffffffffffffffffffffffffff1663b4f56b26338b6040518363ffffffff1660e01b8152600401808373ffffffffffffffffffffffffffffffffffffffff1673ffffffffffffffffffffffffffffffffffffffff16815260200182815260200192505050600060405180830381600087803b158015610db357600080fd5b505af1158015610dc7573d6000803e3d6000fd5b50505050600260009054906101000a900473ffffffffffffffffffffffffffffffffffffffff1673ffffffffffffffffffffffffffffffffffffffff166342966c68886040518263ffffffff1660e01b815260040180828152602001915050600060405180830381600087803b158015610e4057600080fd5b505af1158015610e54573d6000803e3d6000fd5b505050506111ee565b620f424083820281610e6b57fe5b0495506000809054906101000a900473ffffffffffffffffffffffffffffffffffffffff1673ffffffffffffffffffffffffffffffffffffffff166323b872dd3330896040518463ffffffff1660e01b8152600401808473ffffffffffffffffffffffffffffffffffffffff1673ffffffffffffffffffffffffffffffffffffffff1681526020018373ffffffffffffffffffffffffffffffffffffffff1673ffffffffffffffffffffffffffffffffffffffff1681526020018281526020019350505050602060405180830381600087803b158015610f4a57600080fd5b505af1158015610f5e573d6000803e3d6000fd5b505050506040513d6020811015610f7457600080fd5b810190808051906020019092919050505050600260009054906101000a900473ffffffffffffffffffffffffffffffffffffffff1673ffffffffffffffffffffffffffffffffffffffff166323b872dd33308b6040518463ffffffff1660e01b8152600401808473ffffffffffffffffffffffffffffffffffffffff1673ffffffffffffffffffffffffffffffffffffffff1681526020018373ffffffffffffffffffffffffffffffffffffffff1673ffffffffffffffffffffffffffffffffffffffff1681526020018281526020019350505050602060405180830381600087803b15801561106357600080fd5b505af1158015611077573d6000803e3d6000fd5b505050506040513d602081101561108d57600080fd5b810190808051906020019092919050505050600360009054906101000a900473ffffffffffffffffffffffffffffffffffffffff1673ffffffffffffffffffffffffffffffffffffffff1663b4f56b2633836040518363ffffffff1660e01b8152600401808373ffffffffffffffffffffffffffffffffffffffff1673ffffffffffffffffffffffffffffffffffffffff16815260200182815260200192505050600060405180830381600087803b15801561114857600080fd5b505af115801561115c573d6000803e3d6000fd5b50505050600260009054906101000a900473ffffffffffffffffffffffffffffffffffffffff1673ffffffffffffffffffffffffffffffffffffffff166342966c68896040518263ffffffff1660e01b815260040180828152602001915050600060405180830381600087803b1580156111d557600080fd5b505af11580156111e9573d6000803e3d6000fd5b505050505b505050505050505b5050565b6000600360009054906101000a900473ffffffffffffffffffffffffffffffffffffffff1673ffffffffffffffffffffffffffffffffffffffff16632eb9771b6040518163ffffffff1660e01b815260040160206040518083038186803b15801561126457600080fd5b505afa158015611278573d6000803e3d6000fd5b505050506040513d602081101561128e57600080fd5b81019080805190602001909291905050509050600360009054906101000a900473ffffffffffffffffffffffffffffffffffffffff1673ffffffffffffffffffffffffffffffffffffffff166323b872dd3330856040518463ffffffff1660e01b8152600401808473ffffffffffffffffffffffffffffffffffffffff1673ffffffffffffffffffffffffffffffffffffffff1681526020018373ffffffffffffffffffffffffffffffffffffffff1673ffffffffffffffffffffffffffffffffffffffff1681526020018281526020019350505050602060405180830381600087803b15801561137e57600080fd5b505af1158015611392573d6000803e3d6000fd5b505050506040513d60208110156113a857600080fd5b8101908080519060200190929190505050506000809054906101000a900473ffffffffffffffffffffffffffffffffffffffff1673ffffffffffffffffffffffffffffffffffffffff166323b872dd3033620f424085620f42400387028161140c57fe5b046040518463ffffffff1660e01b8152600401808473ffffffffffffffffffffffffffffffffffffffff1673ffffffffffffffffffffffffffffffffffffffff1681526020018373ffffffffffffffffffffffffffffffffffffffff1673ffffffffffffffffffffffffffffffffffffffff1681526020018281526020019350505050602060405180830381600087803b1580156114a957600080fd5b505af11580156114bd573d6000803e3d6000fd5b505050506040513d60208110156114d357600080fd5b810190808051906020019092919050505050600260009054906101000a900473ffffffffffffffffffffffffffffffffffffffff1673ffffffffffffffffffffffffffffffffffffffff1663b4f56b2632620f424084620f42400386028161153757fe5b046040518363ffffffff1660e01b8152600401808373ffffffffffffffffffffffffffffffffffffffff1673ffffffffffffffffffffffffffffffffffffffff16815260200182815260200192505050600060405180830381600087803b1580156115a157600080fd5b505af11580156115b5573d6000803e3d6000fd5b50505050600360009054906101000a900473ffffffffffffffffffffffffffffffffffffffff1673ffffffffffffffffffffffffffffffffffffffff166342966c68836040518263ffffffff1660e01b815260040180828152602001915050600060405180830381600087803b15801561162e57600080fd5b505af1158015611642573d6000803e3d6000fd5b505050505050565b600160009054906101000a900473ffffffffffffffffffffffffffffffffffffffff1673ffffffffffffffffffffffffffffffffffffffff163373ffffffffffffffffffffffffffffffffffffffff161461170d576040517f08c379a00000000000000000000000000000000000000000000000000000000081526004018080602001828103825260188152602001807f796f75277265206e6f7420746865206f7261636c65203a70000000000000000081525060200191505060405180910390fd5b806005819055505056fea26469706673582212208398bf3f9ecd88bc599c5f728cfd00d15a39d0abeddcee66804ce14f77ac5d3a64736f6c63430006060033",
  "immutableReferences": {},
  "source": "pragma solidity ^0.6.0;\n\nimport \"./SafeMath.sol\";\nimport \"./fxs.sol\";\nimport \"./frax.sol\";\n\ncontract frax_pool {\n    ERC20 collateral_token;\n    //address collateral_address; //unused\n    //address fxs_address; //unused\n    //address frax_address; //unused\n    //address frax_pool_address; //unused\n    address pool_oracle;\n    FRAXShares FXS;\n    FRAXStablecoin FRAX;\n    uint256 collateral_price_int; //6 decimals of precision, e.g. 1023000 represents $1.023\n    //pool_ceiling is the total amount of collateral that a pool contract can hold\n    uint256 pool_ceiling;\n    \n        constructor(\n     address _oracle_address) \n    public \n    {\n\n    pool_oracle = _oracle_address;\n}\n\n    modifier onlyByOracle() {\n        require(msg.sender == pool_oracle, \"you're not the oracle :p\");\n        _;\n    }\n    \n    \n    function setPoolCeiling(uint256 new_ceiling) public onlyByOracle {\n        pool_ceiling = new_ceiling;\n    }\n\n    function setOracle(address new_oracle) public onlyByOracle {\n        pool_oracle = new_oracle;\n    }\n    \n    function setCollateralAdd(address collateral_address) public onlyByOracle {\n        collateral_token = ERC20(collateral_address);\n    }\n    \n    function setFRAXAddress(address frax_contract_address) public onlyByOracle {\n        FRAX = FRAXStablecoin(frax_contract_address);\n    }\n    \n    function setPrice(uint256 c_price) public onlyByOracle {\n        collateral_price_int = c_price;\n    }\n    \n\n    \n    function mintFrax(uint256 collateral_amount, uint256 FXS_amount) public payable {\n        //since solidity truncates division, every divsion operation must be the last operation in the equation to ensure minimum error\n        \n        uint256 fxs_needed;\n        uint256 collateral_needed;\n        \n        //if fully decollateralized\n        if(FRAX.global_collateral_ratio() == 0){ //check here or else calculating c_amount throws dividebyzero error\n            FXS.transferFrom(msg.sender, address(this), FXS_amount);\n            FRAX.pool_mint(msg.sender, FXS_amount);\n            FXS.burn(FXS_amount);\n            return;\n        }\n        \n        uint fxs_price = FRAX.FXS_price();\n        uint col_price = collateral_price_int;\n        uint col_ratio = FRAX.global_collateral_ratio();\n        \n        uint256 c_amount = (collateral_amount * col_price) / col_ratio; //replace with safemath .div()\n        uint256 f_amount = (FXS_amount * fxs_price) / (1e6 - col_ratio); //fxs_price has 6 extra precision, col_ratio also has 6 extra precision; replace with safemath .div()\n        \n        if (c_amount < f_amount) {\n            collateral_token.transferFrom(msg.sender, address(this), collateral_amount);\n            fxs_needed = (c_amount * (1e6 - col_ratio)) / 1e6;\n            FXS.transferFrom(msg.sender, address(this), fxs_needed);\n            FRAX.pool_mint(msg.sender, collateral_amount);\n            FXS.burn(fxs_needed);\n        }\n        \n        else {\n            collateral_needed = (f_amount * col_ratio) / 1e6;\n            collateral_token.transferFrom(msg.sender, address(this), collateral_needed);\n            FXS.transferFrom(msg.sender, address(this), FXS_amount);\n            FRAX.pool_mint(msg.sender, f_amount); \n            FXS.burn(FXS_amount);\n        }\n    }\n\n    function redeemFrax(uint256 FRAX_amount) public payable {\n        uint col_ratio = FRAX.global_collateral_ratio();\n        FRAX.transferFrom(msg.sender, address(this), FRAX_amount);\n        collateral_token.transferFrom(address(this), msg.sender, (FRAX_amount * (1e6 - col_ratio)) / 1e6); \n        FXS.pool_mint(tx.origin, (FRAX_amount * (1e6 - col_ratio)) / 1e6);\n        FRAX.burn(FRAX_amount);\n    }\n\n    \n}\n",
  "sourcePath": "/Users/jasonhuan/Main/frax/frax-frontend-truffle/contracts/frax_pool.sol",
  "compiler": {
    "name": "solc",
    "version": "0.6.6+commit.6c089d02.Emscripten.clang"
  },
  "schemaVersion": "3.2.2",
  "updatedAt": "2020-07-23T22:15:01.272Z",
  "networkType": "ethereum",
  "devdoc": {
    "methods": {}
  },
  "userdoc": {
    "methods": {}
  }
}