{
  "contractName": "frax_hop_step",
  "abi": [
    {
      "inputs": [],
      "name": "fraxHop",
      "outputs": [],
      "stateMutability": "nonpayable",
      "type": "function"
    },
    {
      "inputs": [
        {
          "internalType": "uint256",
          "name": "fxs",
          "type": "uint256"
        }
      ],
      "name": "bidExpand",
      "outputs": [],
      "stateMutability": "nonpayable",
      "type": "function"
    },
    {
      "inputs": [],
      "name": "fraxBackstep",
      "outputs": [],
      "stateMutability": "nonpayable",
      "type": "function"
    }
  ],
  "bytecode": "0x6080604052600260009054906101000a900473ffffffffffffffffffffffffffffffffffffffff16600460006101000a81548173ffffffffffffffffffffffffffffffffffffffff021916908373ffffffffffffffffffffffffffffffffffffffff160217905550600360009054906101000a900473ffffffffffffffffffffffffffffffffffffffff16600560006101000a81548173ffffffffffffffffffffffffffffffffffffffff021916908373ffffffffffffffffffffffffffffffffffffffff1602179055503480156100d657600080fd5b50610d7e806100e66000396000f3fe608060405234801561001057600080fd5b50600436106100415760003560e01c80633f56baf0146100465780639ae3971c14610050578063cea59e611461007e575b600080fd5b61004e610088565b005b61007c6004803603602081101561006657600080fd5b8101908080359060200190929190505050610652565b005b610086610966565b005b603c6006544203101561009a57600080fd5b600073ffffffffffffffffffffffffffffffffffffffff166000809054906101000a900473ffffffffffffffffffffffffffffffffffffffff1673ffffffffffffffffffffffffffffffffffffffff16146103a757600560009054906101000a900473ffffffffffffffffffffffffffffffffffffffff1673ffffffffffffffffffffffffffffffffffffffff1663a9059cbb6000809054906101000a900473ffffffffffffffffffffffffffffffffffffffff16600560009054906101000a900473ffffffffffffffffffffffffffffffffffffffff1673ffffffffffffffffffffffffffffffffffffffff166370a08231306040518263ffffffff1660e01b8152600401808273ffffffffffffffffffffffffffffffffffffffff1673ffffffffffffffffffffffffffffffffffffffff16815260200191505060206040518083038186803b1580156101ee57600080fd5b505afa158015610202573d6000803e3d6000fd5b505050506040513d602081101561021857600080fd5b81019080805190602001909291905050506040518363ffffffff1660e01b8152600401808373ffffffffffffffffffffffffffffffffffffffff1673ffffffffffffffffffffffffffffffffffffffff16815260200182815260200192505050602060405180830381600087803b15801561029257600080fd5b505af11580156102a6573d6000803e3d6000fd5b505050506040513d60208110156102bc57600080fd5b810190808051906020019092919050505050600460009054906101000a900473ffffffffffffffffffffffffffffffffffffffff1673ffffffffffffffffffffffffffffffffffffffff166342966c686001546040518263ffffffff1660e01b815260040180828152602001915050600060405180830381600087803b15801561034557600080fd5b505af1158015610359573d6000803e3d6000fd5b5050505060008060006101000a81548173ffffffffffffffffffffffffffffffffffffffff021916908373ffffffffffffffffffffffffffffffffffffffff16021790555060006001819055505b6001600560009054906101000a900473ffffffffffffffffffffffffffffffffffffffff1673ffffffffffffffffffffffffffffffffffffffff16632dacf32a6040518163ffffffff1660e01b815260040160206040518083038186803b15801561041157600080fd5b505afa158015610425573d6000803e3d6000fd5b505050506040513d602081101561043b57600080fd5b8101908080519060200190929190505050111580156105035750670de0b6b3a7640000600560009054906101000a900473ffffffffffffffffffffffffffffffffffffffff1673ffffffffffffffffffffffffffffffffffffffff166352cb5f4e6040518163ffffffff1660e01b815260040160206040518083038186803b1580156104c657600080fd5b505afa1580156104da573d6000803e3d6000fd5b505050506040513d60208110156104f057600080fd5b8101908080519060200190929190505050115b15610650576000612710600560009054906101000a900473ffffffffffffffffffffffffffffffffffffffff1673ffffffffffffffffffffffffffffffffffffffff166318160ddd6040518163ffffffff1660e01b815260040160206040518083038186803b15801561057557600080fd5b505afa158015610589573d6000803e3d6000fd5b505050506040513d602081101561059f57600080fd5b8101908080519060200190929190505050816105b757fe5b049050600560009054906101000a900473ffffffffffffffffffffffffffffffffffffffff1673ffffffffffffffffffffffffffffffffffffffff1663a0712d68826040518263ffffffff1660e01b815260040180828152602001915050600060405180830381600087803b15801561062f57600080fd5b505af1158015610643573d6000803e3d6000fd5b5050505042600681905550505b565b60015481116106ac576040517f08c379a0000000000000000000000000000000000000000000000000000000008152600401808060200182810382526024815260200180610d256024913960400191505060405180910390fd5b600073ffffffffffffffffffffffffffffffffffffffff166000809054906101000a900473ffffffffffffffffffffffffffffffffffffffff1673ffffffffffffffffffffffffffffffffffffffff161461080a57600460009054906101000a900473ffffffffffffffffffffffffffffffffffffffff1673ffffffffffffffffffffffffffffffffffffffff1663a9059cbb6000809054906101000a900473ffffffffffffffffffffffffffffffffffffffff166001546040518363ffffffff1660e01b8152600401808373ffffffffffffffffffffffffffffffffffffffff1673ffffffffffffffffffffffffffffffffffffffff16815260200182815260200192505050602060405180830381600087803b1580156107cd57600080fd5b505af11580156107e1573d6000803e3d6000fd5b505050506040513d60208110156107f757600080fd5b8101908080519060200190929190505050505b336000806101000a81548173ffffffffffffffffffffffffffffffffffffffff021916908373ffffffffffffffffffffffffffffffffffffffff160217905550600460009054906101000a900473ffffffffffffffffffffffffffffffffffffffff1673ffffffffffffffffffffffffffffffffffffffff166323b872dd3330846040518463ffffffff1660e01b8152600401808473ffffffffffffffffffffffffffffffffffffffff1673ffffffffffffffffffffffffffffffffffffffff1681526020018373ffffffffffffffffffffffffffffffffffffffff1673ffffffffffffffffffffffffffffffffffffffff1681526020018281526020019350505050602060405180830381600087803b15801561092757600080fd5b505af115801561093b573d6000803e3d6000fd5b505050506040513d602081101561095157600080fd5b81019080805190602001909291905050505050565b603c600a544203101561097857600080fd5b600073ffffffffffffffffffffffffffffffffffffffff16600760009054906101000a900473ffffffffffffffffffffffffffffffffffffffff1673ffffffffffffffffffffffffffffffffffffffff1614610b0657600460009054906101000a900473ffffffffffffffffffffffffffffffffffffffff1673ffffffffffffffffffffffffffffffffffffffff166340c10f19600760009054906101000a900473ffffffffffffffffffffffffffffffffffffffff166008546040518363ffffffff1660e01b8152600401808373ffffffffffffffffffffffffffffffffffffffff1673ffffffffffffffffffffffffffffffffffffffff16815260200182815260200192505050600060405180830381600087803b158015610a9b57600080fd5b505af1158015610aaf573d6000803e3d6000fd5b505050506000600760006101000a81548173ffffffffffffffffffffffffffffffffffffffff021916908373ffffffffffffffffffffffffffffffffffffffff160217905550600060088190555060006009819055505b6001600560009054906101000a900473ffffffffffffffffffffffffffffffffffffffff1673ffffffffffffffffffffffffffffffffffffffff16632dacf32a6040518163ffffffff1660e01b815260040160206040518083038186803b158015610b7057600080fd5b505afa158015610b84573d6000803e3d6000fd5b505050506040513d6020811015610b9a57600080fd5b8101908080519060200190929190505050118015610c615750670de0b6b3a7640000600560009054906101000a900473ffffffffffffffffffffffffffffffffffffffff1673ffffffffffffffffffffffffffffffffffffffff166352cb5f4e6040518163ffffffff1660e01b815260040160206040518083038186803b158015610c2457600080fd5b505afa158015610c38573d6000803e3d6000fd5b505050506040513d6020811015610c4e57600080fd5b8101908080519060200190929190505050105b15610d2257612710600560009054906101000a900473ffffffffffffffffffffffffffffffffffffffff1673ffffffffffffffffffffffffffffffffffffffff166318160ddd6040518163ffffffff1660e01b815260040160206040518083038186803b158015610cd157600080fd5b505afa158015610ce5573d6000803e3d6000fd5b505050506040513d6020811015610cfb57600080fd5b810190808051906020019092919050505081610d1357fe5b0460098190555042600a819055505b56fe626964206973206e6f742067726561746572207468616e2070726576696f757320626964a2646970667358221220797fa2e6fc4e034c8348f7fa83dba3bed08211413eb13e9f569c1944412bf27464736f6c63430006060033",
  "immutableReferences": {},
  "source": "pragma solidity ^0.6.6;\n\nimport \"./SafeMath.sol\";\nimport \"./fxs.sol\";\nimport \"./frax.sol\";\n/*\n\n6/30 push\n    -fixed the error in calling FRAX.mint(new_supply) line 37 by implementing a public, non-internal mint() function in FRAXStablecoin\n    -fixed bug in line 73, calls FRAX_price() instead of FRAX_price\n    -kicked the can down the road for line 74 .div(10000)\n    -successfully compiles and deploys now\n*/\ncontract frax_hop_step {\n \naddress hopBidder;\nuint256 hopBid;\naddress fxs_address;\naddress frax_address;\nFRAXShares FXS = FRAXShares(fxs_address); \nFRAXStablecoin FRAX = FRAXStablecoin(frax_address); \nuint256 last_hop_time;\n\nfunction fraxHop() public {\n    require(block.timestamp - last_hop_time >= 60);  //3600 seconds means can be called once per hour\n    \n// send previous hop winner their FRAX\n    if (hopBidder != address(0)) {\n        FRAX.transfer(hopBidder, FRAX.balanceOf(address(this))); //what does address(this) return? frax or frax_hop_step?\n        FXS.burn(hopBid);\n        hopBidder = address(0);\n        hopBid = 0;\n}\n    \n    // Mint new FRAX\n    //frax doesn't hop to fractionality unless the price is above $1 with this\n    if (FRAX.n_collateral_ratio() <= 1 && FRAX.FRAX_price() > 1e18) {\n        uint256 new_supply = FRAX.totalSupply() / 10000; //MAKE SAFE MATH .div(10000);\n        FRAX.mint(new_supply);\n        last_hop_time = block.timestamp; //set the time of the last expansion\n    }\n}\n    \n    function bidExpand (uint256 fxs) public {\n        require(fxs > hopBid, \"bid is not greater than previous bid\");\n        \n        // refund previous bidder\n    if (hopBidder != address(0)) {\n    FXS.transfer(hopBidder, hopBid);\n        \n    }\n        \n        // record new bidder\n        hopBidder = msg.sender;\n        FXS.transferFrom(msg.sender, address(this), fxs);\n    }\n    \n    address backHopBidder;\n    uint256 backHopBid;\n    uint256 backHopAmount;\n    uint256 last_back_hop_time;\n    \n    function fraxBackstep() public {\n    require(block.timestamp - last_back_hop_time >= 60); //3600 seconds means can be called once per hour\n    \n    // send previous hop winner their FXS\n    if (backHopBidder != address(0)) {\n        FXS.mint(backHopBidder, backHopBid);\n        backHopBidder = address(0);\n        backHopBid = 0;\n        backHopAmount = 0;\n    }\n    \n    // Start contraction\n    if (FRAX.n_collateral_ratio() > 1 && FRAX.FRAX_price() < 1e18) {\n        backHopAmount = FRAX.totalSupply() / 10000; // MAKE SAFE MATH .div(10000)\n        last_back_hop_time = block.timestamp; //set the time of the last contraction\n    }\n}   \n    \n}",
  "sourcePath": "/Users/jasonhuan/Main/frax/frax-truffle/contracts/frax_hop_step.sol",
  "compiler": {
    "name": "solc",
    "version": "0.6.6+commit.6c089d02.Emscripten.clang"
  },
  "schemaVersion": "3.2.3",
  "updatedAt": "2020-08-19T06:44:51.077Z",
  "devdoc": {
    "methods": {}
  },
  "userdoc": {
    "methods": {}
  }
}