{
  "contractName": "frax_pool",
  "abi": [
    {
      "inputs": [
        {
          "internalType": "address",
          "name": "_oracle_address",
          "type": "address"
        }
      ],
      "stateMutability": "nonpayable",
      "type": "constructor"
    },
    {
      "inputs": [
        {
          "internalType": "uint256",
          "name": "new_ceiling",
          "type": "uint256"
        }
      ],
      "name": "setPoolCeiling",
      "outputs": [],
      "stateMutability": "nonpayable",
      "type": "function"
    },
    {
      "inputs": [
        {
          "internalType": "address",
          "name": "new_oracle",
          "type": "address"
        }
      ],
      "name": "setOracle",
      "outputs": [],
      "stateMutability": "nonpayable",
      "type": "function"
    },
    {
      "inputs": [
        {
          "internalType": "address",
          "name": "collateral_address",
          "type": "address"
        }
      ],
      "name": "setCollateralAdd",
      "outputs": [],
      "stateMutability": "nonpayable",
      "type": "function"
    },
    {
      "inputs": [
        {
          "internalType": "address",
          "name": "frax_contract_address",
          "type": "address"
        }
      ],
      "name": "setFRAXAddress",
      "outputs": [],
      "stateMutability": "nonpayable",
      "type": "function"
    },
    {
      "inputs": [
        {
          "internalType": "uint256",
          "name": "c_price",
          "type": "uint256"
        }
      ],
      "name": "setPrice",
      "outputs": [],
      "stateMutability": "nonpayable",
      "type": "function"
    },
    {
      "inputs": [
        {
          "internalType": "uint256",
          "name": "collateral_amount",
          "type": "uint256"
        }
      ],
      "name": "mintFrax1t1",
      "outputs": [],
      "stateMutability": "payable",
      "type": "function",
      "payable": true
    },
    {
      "inputs": [
        {
          "internalType": "uint256",
          "name": "collateral_amount",
          "type": "uint256"
        },
        {
          "internalType": "uint256",
          "name": "FXS_amount",
          "type": "uint256"
        }
      ],
      "name": "mintFrax",
      "outputs": [],
      "stateMutability": "payable",
      "type": "function",
      "payable": true
    },
    {
      "inputs": [
        {
          "internalType": "uint256",
          "name": "FRAX_amount",
          "type": "uint256"
        }
      ],
      "name": "redeemFrax",
      "outputs": [],
      "stateMutability": "payable",
      "type": "function",
      "payable": true
    }
  ],
  "bytecode": "0x608060405234801561001057600080fd5b506040516119f73803806119f78339818101604052602081101561003357600080fd5b810190808051906020019092919050505080600160006101000a81548173ffffffffffffffffffffffffffffffffffffffff021916908373ffffffffffffffffffffffffffffffffffffffff16021790555050611962806100956000396000f3fe60806040526004361061007b5760003560e01c8063b2892adb1161004e578063b2892adb146101ae578063c7edb3f0146101e6578063cbbf5d6e14610214578063e86bc619146102425761007b565b80634b3161c214610080578063556e9834146100d15780637adbf9731461012257806391b7f5ed14610173575b600080fd5b34801561008c57600080fd5b506100cf600480360360208110156100a357600080fd5b81019080803573ffffffffffffffffffffffffffffffffffffffff16906020019092919050505061027d565b005b3480156100dd57600080fd5b50610120600480360360208110156100f457600080fd5b81019080803573ffffffffffffffffffffffffffffffffffffffff169060200190929190505050610384565b005b34801561012e57600080fd5b506101716004803603602081101561014557600080fd5b81019080803573ffffffffffffffffffffffffffffffffffffffff16906020019092919050505061048a565b005b34801561017f57600080fd5b506101ac6004803603602081101561019657600080fd5b8101908080359060200190929190505050610591565b005b6101e4600480360360408110156101c457600080fd5b81019080803590602001909291908035906020019092919050505061065e565b005b610212600480360360208110156101fc57600080fd5b8101908080359060200190929190505050611233565b005b6102406004803603602081101561022a57600080fd5b8101908080359060200190929190505050611683565b005b34801561024e57600080fd5b5061027b6004803603602081101561026557600080fd5b810190808035906020019092919050505061185f565b005b600160009054906101000a900473ffffffffffffffffffffffffffffffffffffffff1673ffffffffffffffffffffffffffffffffffffffff163373ffffffffffffffffffffffffffffffffffffffff1614610340576040517f08c379a00000000000000000000000000000000000000000000000000000000081526004018080602001828103825260188152602001807f796f75277265206e6f7420746865206f7261636c65203a70000000000000000081525060200191505060405180910390fd5b80600360006101000a81548173ffffffffffffffffffffffffffffffffffffffff021916908373ffffffffffffffffffffffffffffffffffffffff16021790555050565b600160009054906101000a900473ffffffffffffffffffffffffffffffffffffffff1673ffffffffffffffffffffffffffffffffffffffff163373ffffffffffffffffffffffffffffffffffffffff1614610447576040517f08c379a00000000000000000000000000000000000000000000000000000000081526004018080602001828103825260188152602001807f796f75277265206e6f7420746865206f7261636c65203a70000000000000000081525060200191505060405180910390fd5b806000806101000a81548173ffffffffffffffffffffffffffffffffffffffff021916908373ffffffffffffffffffffffffffffffffffffffff16021790555050565b600160009054906101000a900473ffffffffffffffffffffffffffffffffffffffff1673ffffffffffffffffffffffffffffffffffffffff163373ffffffffffffffffffffffffffffffffffffffff161461054d576040517f08c379a00000000000000000000000000000000000000000000000000000000081526004018080602001828103825260188152602001807f796f75277265206e6f7420746865206f7261636c65203a70000000000000000081525060200191505060405180910390fd5b80600160006101000a81548173ffffffffffffffffffffffffffffffffffffffff021916908373ffffffffffffffffffffffffffffffffffffffff16021790555050565b600160009054906101000a900473ffffffffffffffffffffffffffffffffffffffff1673ffffffffffffffffffffffffffffffffffffffff163373ffffffffffffffffffffffffffffffffffffffff1614610654576040517f08c379a00000000000000000000000000000000000000000000000000000000081526004018080602001828103825260188152602001807f796f75277265206e6f7420746865206f7261636c65203a70000000000000000081525060200191505060405180910390fd5b8060048190555050565b6000806000600360009054906101000a900473ffffffffffffffffffffffffffffffffffffffff1673ffffffffffffffffffffffffffffffffffffffff16632eb9771b6040518163ffffffff1660e01b815260040160206040518083038186803b1580156106cb57600080fd5b505afa1580156106df573d6000803e3d6000fd5b505050506040513d60208110156106f557600080fd5b8101908080519060200190929190505050141561097a57600260009054906101000a900473ffffffffffffffffffffffffffffffffffffffff1673ffffffffffffffffffffffffffffffffffffffff166323b872dd3330866040518463ffffffff1660e01b8152600401808473ffffffffffffffffffffffffffffffffffffffff1673ffffffffffffffffffffffffffffffffffffffff1681526020018373ffffffffffffffffffffffffffffffffffffffff1673ffffffffffffffffffffffffffffffffffffffff1681526020018281526020019350505050602060405180830381600087803b1580156107e957600080fd5b505af11580156107fd573d6000803e3d6000fd5b505050506040513d602081101561081357600080fd5b810190808051906020019092919050505050600360009054906101000a900473ffffffffffffffffffffffffffffffffffffffff1673ffffffffffffffffffffffffffffffffffffffff1663b4f56b2633856040518363ffffffff1660e01b8152600401808373ffffffffffffffffffffffffffffffffffffffff1673ffffffffffffffffffffffffffffffffffffffff16815260200182815260200192505050600060405180830381600087803b1580156108ce57600080fd5b505af11580156108e2573d6000803e3d6000fd5b50505050600260009054906101000a900473ffffffffffffffffffffffffffffffffffffffff1673ffffffffffffffffffffffffffffffffffffffff166342966c68846040518263ffffffff1660e01b815260040180828152602001915050600060405180830381600087803b15801561095b57600080fd5b505af115801561096f573d6000803e3d6000fd5b50505050505061122f565b6000600360009054906101000a900473ffffffffffffffffffffffffffffffffffffffff1673ffffffffffffffffffffffffffffffffffffffff1663f0b51e8b6040518163ffffffff1660e01b815260040160206040518083038186803b1580156109e457600080fd5b505afa1580156109f8573d6000803e3d6000fd5b505050506040513d6020811015610a0e57600080fd5b81019080805190602001909291905050509050600060045490506000600360009054906101000a900473ffffffffffffffffffffffffffffffffffffffff1673ffffffffffffffffffffffffffffffffffffffff16632eb9771b6040518163ffffffff1660e01b815260040160206040518083038186803b158015610a9257600080fd5b505afa158015610aa6573d6000803e3d6000fd5b505050506040513d6020811015610abc57600080fd5b8101908080519060200190929190505050905060008183890281610adc57fe5b049050600082620f42400385890281610af157fe5b04905080821015610e96576000809054906101000a900473ffffffffffffffffffffffffffffffffffffffff1673ffffffffffffffffffffffffffffffffffffffff166323b872dd33308c6040518463ffffffff1660e01b8152600401808473ffffffffffffffffffffffffffffffffffffffff1673ffffffffffffffffffffffffffffffffffffffff1681526020018373ffffffffffffffffffffffffffffffffffffffff1673ffffffffffffffffffffffffffffffffffffffff1681526020018281526020019350505050602060405180830381600087803b158015610bd857600080fd5b505af1158015610bec573d6000803e3d6000fd5b505050506040513d6020811015610c0257600080fd5b810190808051906020019092919050505050620f424083620f424003830281610c2757fe5b049650600260009054906101000a900473ffffffffffffffffffffffffffffffffffffffff1673ffffffffffffffffffffffffffffffffffffffff166323b872dd33308a6040518463ffffffff1660e01b8152600401808473ffffffffffffffffffffffffffffffffffffffff1673ffffffffffffffffffffffffffffffffffffffff1681526020018373ffffffffffffffffffffffffffffffffffffffff1673ffffffffffffffffffffffffffffffffffffffff1681526020018281526020019350505050602060405180830381600087803b158015610d0757600080fd5b505af1158015610d1b573d6000803e3d6000fd5b505050506040513d6020811015610d3157600080fd5b810190808051906020019092919050505050600360009054906101000a900473ffffffffffffffffffffffffffffffffffffffff1673ffffffffffffffffffffffffffffffffffffffff1663b4f56b26338b6040518363ffffffff1660e01b8152600401808373ffffffffffffffffffffffffffffffffffffffff1673ffffffffffffffffffffffffffffffffffffffff16815260200182815260200192505050600060405180830381600087803b158015610dec57600080fd5b505af1158015610e00573d6000803e3d6000fd5b50505050600260009054906101000a900473ffffffffffffffffffffffffffffffffffffffff1673ffffffffffffffffffffffffffffffffffffffff166342966c68886040518263ffffffff1660e01b815260040180828152602001915050600060405180830381600087803b158015610e7957600080fd5b505af1158015610e8d573d6000803e3d6000fd5b50505050611227565b620f424083820281610ea457fe5b0495506000809054906101000a900473ffffffffffffffffffffffffffffffffffffffff1673ffffffffffffffffffffffffffffffffffffffff166323b872dd3330896040518463ffffffff1660e01b8152600401808473ffffffffffffffffffffffffffffffffffffffff1673ffffffffffffffffffffffffffffffffffffffff1681526020018373ffffffffffffffffffffffffffffffffffffffff1673ffffffffffffffffffffffffffffffffffffffff1681526020018281526020019350505050602060405180830381600087803b158015610f8357600080fd5b505af1158015610f97573d6000803e3d6000fd5b505050506040513d6020811015610fad57600080fd5b810190808051906020019092919050505050600260009054906101000a900473ffffffffffffffffffffffffffffffffffffffff1673ffffffffffffffffffffffffffffffffffffffff166323b872dd33308b6040518463ffffffff1660e01b8152600401808473ffffffffffffffffffffffffffffffffffffffff1673ffffffffffffffffffffffffffffffffffffffff1681526020018373ffffffffffffffffffffffffffffffffffffffff1673ffffffffffffffffffffffffffffffffffffffff1681526020018281526020019350505050602060405180830381600087803b15801561109c57600080fd5b505af11580156110b0573d6000803e3d6000fd5b505050506040513d60208110156110c657600080fd5b810190808051906020019092919050505050600360009054906101000a900473ffffffffffffffffffffffffffffffffffffffff1673ffffffffffffffffffffffffffffffffffffffff1663b4f56b2633836040518363ffffffff1660e01b8152600401808373ffffffffffffffffffffffffffffffffffffffff1673ffffffffffffffffffffffffffffffffffffffff16815260200182815260200192505050600060405180830381600087803b15801561118157600080fd5b505af1158015611195573d6000803e3d6000fd5b50505050600260009054906101000a900473ffffffffffffffffffffffffffffffffffffffff1673ffffffffffffffffffffffffffffffffffffffff166342966c68896040518263ffffffff1660e01b815260040180828152602001915050600060405180830381600087803b15801561120e57600080fd5b505af1158015611222573d6000803e3d6000fd5b505050505b505050505050505b5050565b6000600360009054906101000a900473ffffffffffffffffffffffffffffffffffffffff1673ffffffffffffffffffffffffffffffffffffffff16632eb9771b6040518163ffffffff1660e01b815260040160206040518083038186803b15801561129d57600080fd5b505afa1580156112b1573d6000803e3d6000fd5b505050506040513d60208110156112c757600080fd5b81019080805190602001909291905050509050600360009054906101000a900473ffffffffffffffffffffffffffffffffffffffff1673ffffffffffffffffffffffffffffffffffffffff166323b872dd3330856040518463ffffffff1660e01b8152600401808473ffffffffffffffffffffffffffffffffffffffff1673ffffffffffffffffffffffffffffffffffffffff1681526020018373ffffffffffffffffffffffffffffffffffffffff1673ffffffffffffffffffffffffffffffffffffffff1681526020018281526020019350505050602060405180830381600087803b1580156113b757600080fd5b505af11580156113cb573d6000803e3d6000fd5b505050506040513d60208110156113e157600080fd5b8101908080519060200190929190505050506000809054906101000a900473ffffffffffffffffffffffffffffffffffffffff1673ffffffffffffffffffffffffffffffffffffffff166323b872dd3033620f424085620f42400387028161144557fe5b046040518463ffffffff1660e01b8152600401808473ffffffffffffffffffffffffffffffffffffffff1673ffffffffffffffffffffffffffffffffffffffff1681526020018373ffffffffffffffffffffffffffffffffffffffff1673ffffffffffffffffffffffffffffffffffffffff1681526020018281526020019350505050602060405180830381600087803b1580156114e257600080fd5b505af11580156114f6573d6000803e3d6000fd5b505050506040513d602081101561150c57600080fd5b810190808051906020019092919050505050600260009054906101000a900473ffffffffffffffffffffffffffffffffffffffff1673ffffffffffffffffffffffffffffffffffffffff1663b4f56b2632620f424084620f42400386028161157057fe5b046040518363ffffffff1660e01b8152600401808373ffffffffffffffffffffffffffffffffffffffff1673ffffffffffffffffffffffffffffffffffffffff16815260200182815260200192505050600060405180830381600087803b1580156115da57600080fd5b505af11580156115ee573d6000803e3d6000fd5b50505050600360009054906101000a900473ffffffffffffffffffffffffffffffffffffffff1673ffffffffffffffffffffffffffffffffffffffff166342966c68836040518263ffffffff1660e01b815260040180828152602001915050600060405180830381600087803b15801561166757600080fd5b505af115801561167b573d6000803e3d6000fd5b505050505050565b6000809054906101000a900473ffffffffffffffffffffffffffffffffffffffff1673ffffffffffffffffffffffffffffffffffffffff166323b872dd3330846040518463ffffffff1660e01b8152600401808473ffffffffffffffffffffffffffffffffffffffff1673ffffffffffffffffffffffffffffffffffffffff1681526020018373ffffffffffffffffffffffffffffffffffffffff1673ffffffffffffffffffffffffffffffffffffffff1681526020018281526020019350505050602060405180830381600087803b15801561175f57600080fd5b505af1158015611773573d6000803e3d6000fd5b505050506040513d602081101561178957600080fd5b810190808051906020019092919050505050600360009054906101000a900473ffffffffffffffffffffffffffffffffffffffff1673ffffffffffffffffffffffffffffffffffffffff1663b4f56b2633836040518363ffffffff1660e01b8152600401808373ffffffffffffffffffffffffffffffffffffffff1673ffffffffffffffffffffffffffffffffffffffff16815260200182815260200192505050600060405180830381600087803b15801561184457600080fd5b505af1158015611858573d6000803e3d6000fd5b5050505050565b600160009054906101000a900473ffffffffffffffffffffffffffffffffffffffff1673ffffffffffffffffffffffffffffffffffffffff163373ffffffffffffffffffffffffffffffffffffffff1614611922576040517f08c379a00000000000000000000000000000000000000000000000000000000081526004018080602001828103825260188152602001807f796f75277265206e6f7420746865206f7261636c65203a70000000000000000081525060200191505060405180910390fd5b806005819055505056fea2646970667358221220d53c7a37375024ae81c73c993476d5a15e8230f1a373ae16a5274d4f4c6f803564736f6c63430006060033",
  "immutableReferences": {},
  "source": "pragma solidity ^0.6.0;\n\nimport \"./SafeMath.sol\";\nimport \"./fxs.sol\";\nimport \"./frax.sol\";\n\ncontract frax_pool {\n    ERC20 collateral_token;\n    //address collateral_address; //unused\n    //address fxs_address; //unused\n    //address frax_address; //unused\n    //address frax_pool_address; //unused\n    address pool_oracle;\n    FRAXShares FXS;\n    FRAXStablecoin FRAX;\n    uint256 collateral_price_int; //6 decimals of precision, e.g. 1023000 represents $1.023\n    //pool_ceiling is the total amount of collateral that a pool contract can hold\n    uint256 pool_ceiling;\n    \n        constructor(\n     address _oracle_address) \n    public \n    {\n\n    pool_oracle = _oracle_address;\n}\n\n    modifier onlyByOracle() {\n        require(msg.sender == pool_oracle, \"you're not the oracle :p\");\n        _;\n    }\n    \n    \n    function setPoolCeiling(uint256 new_ceiling) public onlyByOracle {\n        pool_ceiling = new_ceiling;\n    }\n\n    function setOracle(address new_oracle) public onlyByOracle {\n        pool_oracle = new_oracle;\n    }\n    \n    function setCollateralAdd(address collateral_address) public onlyByOracle {\n        collateral_token = ERC20(collateral_address);\n    }\n    \n    function setFRAXAddress(address frax_contract_address) public onlyByOracle {\n        FRAX = FRAXStablecoin(frax_contract_address);\n    }\n    \n    function setPrice(uint256 c_price) public onlyByOracle {\n        collateral_price_int = c_price;\n    }\n    \n    function mintFrax1t1(uint256 collateral_amount) public payable {\n        collateral_token.transferFrom(msg.sender, address(this), collateral_amount);\n        FRAX.pool_mint(msg.sender, collateral_amount);\n    }\n\n    \n    function mintFrax(uint256 collateral_amount, uint256 FXS_amount) public payable {\n        //since solidity truncates division, every divsion operation must be the last operation in the equation to ensure minimum error\n        \n        uint256 fxs_needed;\n        uint256 collateral_needed;\n        \n        //if fully decollateralized\n        if(FRAX.global_collateral_ratio() == 0){ //check here or else calculating c_amount throws dividebyzero error\n            FXS.transferFrom(msg.sender, address(this), FXS_amount);\n            FRAX.pool_mint(msg.sender, FXS_amount);\n            FXS.burn(FXS_amount);\n            return;\n        }\n        \n        uint fxs_price = FRAX.FXS_price();\n        uint col_price = collateral_price_int;\n        uint col_ratio = FRAX.global_collateral_ratio();\n        \n        uint256 c_amount = (collateral_amount * col_price) / col_ratio; //replace with safemath .div()\n        uint256 f_amount = (FXS_amount * fxs_price) / (1e6 - col_ratio); //fxs_price has 6 extra precision, col_ratio also has 6 extra precision; replace with safemath .div()\n        \n        if (c_amount < f_amount) {\n            collateral_token.transferFrom(msg.sender, address(this), collateral_amount);\n            fxs_needed = (c_amount * (1e6 - col_ratio)) / 1e6;\n            FXS.transferFrom(msg.sender, address(this), fxs_needed);\n            FRAX.pool_mint(msg.sender, collateral_amount);\n            FXS.burn(fxs_needed);\n        }\n        \n        else {\n            collateral_needed = (f_amount * col_ratio) / 1e6;\n            collateral_token.transferFrom(msg.sender, address(this), collateral_needed);\n            FXS.transferFrom(msg.sender, address(this), FXS_amount);\n            FRAX.pool_mint(msg.sender, f_amount); \n            FXS.burn(FXS_amount);\n        }\n    }\n\n    function redeemFrax(uint256 FRAX_amount) public payable {\n        uint col_ratio = FRAX.global_collateral_ratio();\n        FRAX.transferFrom(msg.sender, address(this), FRAX_amount);\n        collateral_token.transferFrom(address(this), msg.sender, (FRAX_amount * (1e6 - col_ratio)) / 1e6); \n        FXS.pool_mint(tx.origin, (FRAX_amount * (1e6 - col_ratio)) / 1e6);\n        FRAX.burn(FRAX_amount);\n    }\n\n    \n}\n",
  "sourcePath": "/Users/jasonhuan/Main/frax/frax-truffle/contracts/frax_pool.sol",
  "compiler": {
    "name": "solc",
    "version": "0.6.6+commit.6c089d02.Emscripten.clang"
  },
  "schemaVersion": "3.2.2",
  "updatedAt": "2020-08-16T21:45:12.875Z",
  "networkType": "ethereum",
  "devdoc": {
    "methods": {}
  },
  "userdoc": {
    "methods": {}
  }
}